:020000040C00EE
:100000000088FE1F010200089902000899020008FA
:1000100099020008990200089902000800000000F7
:10002000000000000000000000000000990200082D
:1000300099020008000000009902000895260008B7
:100040009902000899020008990200089902000824
:100050009902000899020008990200089902000814
:1000600099020008000000000000000000000000ED
:100070009902000800000000990200089902000897
:1000800099020008990200089902000899020008E4
:1000900099020008990200089902000899020008D4
:1000A00099020008990200089902000899020008C4
:1000B00099020008990200089902000899020008B4
:1000C00099020008990200089902000899020008A4
:1000D0009902000899020008990200089902000894
:1000E0009902000899020008990200089902000884
:1000F0009902000899020008990200089902000874
:100100009902000899020008990200089902000863
:100110009902000899020008990200089902000853
:100120009902000899020008990200089902000843
:100130009902000899020008990200089902000833
:100140009902000899020008990200089902000823
:100150009902000899020008990200089902000813
:10016000000000000000000000000000000000008F
:1001700099020008990200089902000899020008F3
:1001800099020008990200089902000899020008E3
:100190009902000899020008990200080D2200083F
:1001A000990200081D22000899020008990200081F
:1001B00099020008990200089902000899020008B3
:1001C00099020008990200089902000899020008A3
:1001D0009902000899020008990200080000000036
:1001E0009902000899020008990200089902000883
:1001F00099020008000000009902000800000000B9
:10020000DFF874D01D4880471D4C1E4DAC4209DA02
:1002100021686268A368043BA2BFC858D050FAE7BF
:100220000C34F3E7184B194CA34208DA19685A68E2
:100230000020043AA4BF8850FBE70833F4E71448D1
:1002400080471448804700009865000C0088FE1F16
:10025000C40100009865000C0088FE1F000000002B
:10026000C889FE1F140300000000002000000000E9
:1002700000000020000000000088FE1F9D02000812
:1002800048020008600200086002000878020008C6
:10029000A53900083D300008FEE7000098B500AF22
:1002A000054A4FF0005314460FCB84E80F0002F0CC
:1002B000BFFB02F027FC98BDC4FF032080B584B0CB
:1002C00000AF2F4BDB6803F48033002B3ED02D4B67
:1002D000DB6803F00103002B02D02B4BFB6002E034
:1002E00002F006FCF860274B1B6803F00403002BA8
:1002F00020D0244B9B6803F070631B0E0133BB605E
:10030000204B9B6803F4FE431B0A01337B601D4BAB
:100310009B6803F4FE031B0C01333B60BB683A6827
:1003200002FB03F3FA68B2FBF3F37A6802FB03F310
:10033000FB600DE0134B9B6803F07F0301333B60D0
:10034000FA683B68B2FBF3F3FB6001E00E4BFB6025
:100350000B4BDB68DBB20133FA68B2FBF3F3FB60F3
:10036000074B1B6903F001030133FA68B2FBF3F397
:10037000FB60064AFB6813601037BD4680BD00BFB6
:10038000004600501047005000366E01C0FF0320A9
:1003900080B485B000AFF8600B467A60FB72FB7AE0
:1003A0009B08DBB21846FB7A9B08DBB21A46FB6857
:1003B000043253F82220FB7A03F00303DB001946D2
:1003C000F8238B40DB4302EA0301FB68021D43F87C
:1003D0002210FB685A6FFB7A5B00194603238B409F
:1003E000DB431A40FB685A67FB683A4A934203D0E2
:1003F000FB68394A93420AD1FB681A6EFB7A0121E5
:1004000001FA03F3DB431A40FB681A6642E07B689B
:100410001B78DBB25BB2002B3CDA7B685A68FB7A54
:100420009A40FB685A60FB7ADB08DBB21846FB7A1D
:10043000DB08DBB21A46FB68103253F82220FB7A45
:1004400003F007039B00194607238B40DB4302EAB6
:100450000301FB6800F1100243F82210FB7ADB086D
:10046000DBB21846FB7ADB08DBB21A46FB681032B7
:1004700053F822207B681B7A1946FB7A03F00703A6
:100480009B0001FA03F342EA0301FB6800F110024A
:1004900043F82210FB7A9B08DBB21846FB7A9B08D4
:1004A000DBB21A46FB68043253F822207B681B78C3
:1004B0001946FB7A03F00303DB0001FA03F342EA77
:1004C0000301FB68021D43F822101437BD465DF896
:1004D000047B7047008E0248008F024880B400AF52
:1004E000034B1B681846BD465DF8047B704700BF90
:1004F000C0FF032080B400AF034BD3F8C4301846CC
:10050000BD465DF8047B70470040005080B584B064
:1005100000AF7860FFF7D2FE0B4B1B680B4AA2FBC3
:1005200003239A0C7B6802FB03F37B600023FB60D0
:1005300003E000BFFB680133FB60FA687B689A4206
:10054000F7D31037BD4680BDC0FF032083DE1B43B9
:1005500080B400AF034B5B681846BD465DF8047B72
:10056000704700BF7440005080B483B000AF786023
:10057000034A7B68D3600C37BD465DF8047B704747
:1005800074400050B0B584B002AF7860002000F035
:10059000C5F800F0B7FA7B68DB79002B0AD000F0D1
:1005A000EFFA00BF00F0DAFA034683F00103DBB292
:1005B000002BF7D17B685B7A184600F029F900BF61
:1005C000FFF798FF0346002BFAD17B681B7A184689
:1005D00000F072FA7B681B7C184600F037F97B68E4
:1005E0005B7C184600F05AF97B689B7C184600F04B
:1005F00041F97B68DB7C184600F064F97B689B79E5
:10060000002B0AD000F0F4FA00BF00F019FB0346FB
:1006100083F00103DBB2002BF7D17B68DB78002B82
:1006200009D17B689B7983F00103DBB2002B17D0E3
:1006300000F02AFB14E000F017FB7B6899887B68C8
:10064000DA787B685B781D467B681B781C467B6884
:100650009B780093084611462A46234600F024FB67
:100660007B68DB68B3F5803F03D14FF4803000F046
:1006700055F8FFF723FE0837BD46B0BD80B485B0FE
:1006800000AF78607B681B0FFB607B6823F07043D2
:10069000BB60FA6813465B0013449B001A46044B88
:1006A0001344BA681A601437BD465DF8047B70477E
:1006B0001444005080B485B000AF78607B681B0F95
:1006C000FB607B6823F07043BB60FA6813465B00F5
:1006D00013449B001A46084B13441A68BB68134026
:1006E000002B14BF01230023DBB218461437BD468C
:1006F0005DF8047B704700BF0C44005080B500AF2C
:10070000FFF7ECFE0246044B5B6903F0010322FA9B
:1007100003F3184680BD00BF0046005080B483B08C
:1007200000AF78600649064BDB6823F480327B68B3
:100730001343CB600C37BD465DF8047B704700BFA8
:100740000046005080B483B000AF78600649064B85
:100750009B6923F480327B6813438B610C37BD4661
:100760005DF8047B704700BF0046005080B483B042
:1007700000AF78600649064B5B6A23F440327B6821
:1007800013434B620C37BD465DF8047B704700BFD6
:100790000046005080B483B000AF0346FB80FB8866
:1007A000002B08D10A4A0A4BDB6823F4807323F03C
:1007B0000103D36007E0064A054BDB6843F480730E
:1007C00043F00103D3600C37BD465DF8047B7047EE
:1007D0001047005080B483B000AF0346FB7100BFE8
:1007E000094BD3F8C43003F00803002BF8D10749B4
:1007F000064BDB6823F04002FB791343CB600C37D8
:10080000BD465DF8047B7047004000500043005037
:1008100080B483B000AF0346FB7100BF094BD3F82F
:10082000C43003F00803002BF8D10749064BDB68FE
:1008300023F08002FB791343CB600C37BD465DF893
:10084000047B7047004000500043005080B483B0E8
:1008500000AF78600649064BDB6823F0FF027B6837
:10086000013B1343CB600C37BD465DF8047B7047FA
:100870000046005080B483B000AF78600649064B54
:100880001B6A23F001027B68013B13430B620C37A8
:10089000BD465DF8047B70470046005080B483B0CD
:1008A00000AF78600649064B1B6923F001027B68A4
:1008B000013B13430B610C37BD465DF8047B704769
:1008C0000046005080B483B000AF78600649064B04
:1008D0005B6923F001027B68013B13434B610C37DA
:1008E000BD465DF8047B70470046005080B483B07D
:1008F00000AF78600649064B9B6923F007027B68CE
:10090000013B13438B610C37BD465DF8047B704798
:100910000046005080B483B000AF78600649064BB3
:10092000DB6923F03F027B68013B1343CB610C374B
:10093000BD465DF8047B70470046005080B483B02C
:1009400000AF78600649064B5B6A23F0FF027B68C4
:10095000013B13434B620C37BD465DF8047B704787
:100960000046005080B485B000AF78607B681B0FF4
:10097000FB607B6823F07043BB60FA6813465B0042
:1009800013449B001A46044B1344BA681A60143788
:10099000BD465DF8047B70474846005080B485B082
:1009A00000AF78607B681B0FFB607B6823F07043AF
:1009B000BB60FA6813465B0013449B001A46084B61
:1009C00013441A68BB681340002B14BF0123002393
:1009D000DBB218461437BD465DF8047B704700BF94
:1009E0004046005080B400AF054A054B5B6923F4D4
:1009F000803323F002035361BD465DF8047B7047EA
:100A00001047005080B483B000AF78603960284A46
:100A1000274B5B6943F00103536100BF244B1B6903
:100A200003F00103002BF9D0214A214B5B6943F00D
:100A3000100353611E493B68013B1A027B68013B6E
:100A40001B0613434B611A4A194B5B6943F0400381
:100A50005361174A164B5B6923F010035361144A24
:100A6000134B5B6943F48023536100BF104B1B6938
:100A700003F00403002BF9D00D4A0D4B5B6923F002
:100A80000103536100BF0A4B1B6903F00103002BF4
:100A9000F9D1074A064B5B6923F040035361054BCC
:100AA0000822DA600C37BD465DF8047B704700BF52
:100AB000104700506041005080B582B000AF03463F
:100AC000FB710F4A0E4B5B6843F480135360FB7954
:100AD000012B0ED10A4A0A4B5B6823F48013536042
:100AE0006420FFF713FD064A054B5B6843F40023BF
:100AF00053606420FFF70AFD0837BD4680BD00BF84
:100B00001047005080B400AF124B1B6803F0010384
:100B1000002B09D10F4B01225A6000BF0D4B1B68FF
:100B200003F00103002BF9D00B4B1B6803F4007397
:100B3000002B0AD0084B4FF400729A6000BF064B9E
:100B40001B6803F40073002BF9D1BD465DF8047BEC
:100B5000704700BF004200500044005080B400AF16
:100B6000064B1B6803F00803002B0CBF0123002376
:100B7000DBB21846BD465DF8047B70470043005069
:100B800080B500AF4FF40000FFF7EEFC174A174B9B
:100B9000DB6923F03003D36100BFFFF7D9FC0346C4
:100BA00003F40003002BF8D04FF40030FFF7DCFC17
:100BB0000E4B08225A6000BFFFF7CAFC034603F43D
:100BC0000033002BF8D04FF40020FFF7CDFC074A8C
:100BD000064BDB6843F00803D36000BFFFF7B8FCA7
:100BE000034603F40023002BF8D080BD00430050DF
:100BF000B0B500AF0F4A0F4B5B6823F480335360EE
:100C00000D4D0D4B5B6823F4702424F0300401F08B
:100C10006FFF0246094BA3FB02231B0D013B1B0484
:100C200023436B60034A034B5B6823F40033536038
:100C3000B0BD00BF10470050004700506BCA5F6B4B
:100C400080B400AF074B1B6803F46073B3F5607F9B
:100C50000CBF01230023DBB21846BD465DF8047BC0
:100C6000704700BF1047005080B400AF054A054BE5
:100C70005B6823F4803323F002035360BD465DF8C4
:100C8000047B70471047005080B400AF054A054B05
:100C90005B6843F4803343F002035360BD465DF864
:100CA000047B70471047005080B586B000AFBA6033
:100CB0007B600346FB810B467B73FB891846FFF77D
:100CC00069FD7B7B012B40F08B80FB89002B09D1D8
:100CD00001F00EFF0246544BA3FB02239B0C9B0525
:100CE0007B6102E04FF0C0637B617B697A6802FB45
:100CF00003F2BB68B2FBF3F37B617B694B4AA2FB57
:100D000003231B099B0D3B61494A494B5B6843F038
:100D10000103536000BF464B1B6803F00103002B27
:100D2000F9D0434A424B5B6843F01003536040499B
:100D30003F4B9A683F4B13407A68013A12021A43BC
:100D40003B69013B1B041A43BB68013B1B06134371
:100D50008B60374A364B5B6843F040035360344A3C
:100D6000334B5B6823F010035360314A304B5B68B0
:100D700043F48023536000BF2D4B1B6803F0040332
:100D8000002BF9D02A4A2A4B5B6823F001035360F9
:100D900000BF274B1B6803F00103002BF9D17B69CF
:100DA000254AA2FB03235B099B0D3B613A6A3B6921
:100DB0009A4202D2386900F045F87B695B081F4A05
:100DC000A2FB03235B099B0D3B613A6A3B699A4294
:100DD00002D2386900F036F8386A00F033F81CE0C7
:100DE0001349134B9B6823F07F023B6A013B13437B
:100DF0008B6000BF0E4B1B6803F01003002BF9D073
:100E00000B4A0B4B5B6843F00103536000BF084B78
:100E10001B6803F00103002BF9D0094B0522DA60AF
:100E20001837BD4680BD00BF83DE1B43ABAAAAAA0C
:100E300010470050FF8080F089888888B7600BB623
:100E40006041005080B582B000AF78600B490B4B19
:100E50009B6823F4FE027B68013B1B0413438B60F9
:100E600000BF064B1B6803F02003002BF9D0322093
:100E7000FFF74CFB0837BD4680BD00BF1047005050
:100E800080B483B000AF78607B689B6BDBB223F0EB
:100E90007F03DBB218460C37BD465DF8047B704714
:100EA00080B483B000AF786039607B683A68DA64F8
:100EB0000C37BD465DF8047B704700BF80B586B037
:100EC00000AFF860B9601346FB7110237B61F868CE
:100ED00000F09EF8BB681B7A002B02D0BB681B7A1F
:100EE0007B61FB79002B14D0BB681B79002B09D0E8
:100EF000BB681B681A467B69F86811461A4600F001
:100F000045F906E0BB681B68F86819467A6900F085
:100F1000CBF8BB68DB79013B5A007B695B08013386
:100F20001B02134343F4403343F00103FA68D363D5
:100F3000BB685B79013B1B0643F48172FB685A6313
:100F4000BB689B79002B09D0FB685A6BBB689B7907
:100F5000013B1B041A43FB685A6308E0FB685A6BA9
:100F6000BB685B79013B1B041A43FB685A63FB684F
:100F70004FF4A0629A63FB684FF0FF32DA64BB68FB
:100F80005B891A46FB681A641837BD4680BD00BFEE
:100F900080B582B000AF78600B467B807B68D3F869
:100FA000083103F0E063002B10D100BF7868FFF731
:100FB00067FF0346802BF9D078684FF40051FFF7A4
:100FC0006FFF7A887B68C3F8802003E07A887B68AB
:100FD000C3F880210837BD4680BD00BF80B485B00E
:100FE00000AF78607B68D3F80C3103F0E063002B2E
:100FF00003D17B685B6DFB8103E07B68D3F81C3118
:10100000FB81FB8918461437BD465DF8047B7047A9
:1010100080B582B000AF78607B681A4A934203D0F3
:101020007B68194A934203D1184800F0F1F916E0A1
:101030007B68174A934203D07B68164A934203D1D8
:10104000154800F0E5F90AE07B68144A934203D0A2
:101050007B68134A934202D1124800F0D9F97B68A9
:101060000322DA6000BF7B68DB6803F00103002B1A
:10107000F9D07B681B6C23F00F027B681A64083779
:10108000BD4680BD0000034000020340080003404D
:1010900000000248000202480800024800400248DE
:1010A000004202480840024880B58EB000AFF860A8
:1010B000B9607A60BB68632B5AD97B68002B57D024
:1010C000FFF71CFB02462F4BA3FB02235B093B628D
:1010D000BB682C4AA2FB03235B09BB604FF480630F
:1010E000FB620123BB6240F2FF337B624FF48063FB
:1010F0003B6322E03B6A3A6B02FB03F2BB68796810
:1011000001FB03F3B2FBF3F3FB61FB699B0ABB61D9
:10111000FB69C3F309037B61BB69B3F5806F09D831
:101120007A697B6A9A4205D27B697B62BB69BB6242
:101130003B6BFB623B6B013B3B633B6B002BD9D1B1
:10114000FB6A013B43F40042FB681A61FB685A6981
:101150000D4B13407A68013A92021A43BB6A013B75
:101160001B041A43FB685A61002387F8373002E0FA
:10117000012387F8373097F8373018463837BD469F
:1011800080BD00BF1F85EB51EF8000FC80B58CB0A7
:1011900000AFF860B9607A60FFF7B0FA03463B62CF
:1011A000BB687A6802FB03F3FB610123FB623A6AC6
:1011B000FB699A425FDD3A6AFB6992FBF3F3BB621B
:1011C00010E0FB6A0133FB62BB687A6802FB03F341
:1011D0001A46FB6A03FB02F3FB613A6AFB6992FB66
:1011E000F3F3BB62BB6A40F2FE329342E9D83A6A3B
:1011F0007B68B96A01FB03F3F96A01FB03F3B2FBF5
:10120000F3F3BB613A6ABB6A0133796801FB03F30C
:10121000F96A01FB03F3B2FBF3F37B61BA687B6904
:10122000D31A83EAE372A2EBE372B968BB69CB1A03
:10123000002BB8BF5B429A4202DABB6A0133BB6241
:10124000BB6AC3F58063BB62BB6A43F48042FB6840
:101250001A61FB685A690C4B13407A68013A920292
:101260001A43FB6A013B1B041A43FB685A610023C3
:1012700087F8273002E0012387F8273097F82730D6
:1012800018463037BD4680BDEF8000FC80B485B085
:1012900000AFF860B9603B601346FB71FB68D3F8A0
:1012A000083123F0E062FB68C3F80821FB68D3F83B
:1012B0000821094B13403A681102BA681143FA79C0
:1012C00012060A431A43FB68C3F808211437BD46C7
:1012D0005DF8047B704700BFC0C0FFF880B485B0E4
:1012E00000AFF860B9603B601346FB71FB68D3F850
:1012F0000C3123F0E062FB68C3F80C21FB68D3F8E3
:101300000C210A4B13403A681102BA681143FA796A
:1013100012060A43134343F08052FB68C3F80C21C2
:101320001437BD465DF8047B704700BFC0C0FFEFB7
:1013300080B485B000AFF8600B467A60FB72FB6842
:10134000D3F80C3123F47C527B681B021A43FB68F0
:10135000C3F80C211437BD465DF8047B704700BF0D
:1013600080B485B000AFF8600B467A60FB72FB6812
:101370009A69FB7A072101FA03F3DB431A40FB7AEF
:10138000796801FA03F31A43FB689A611437BD4682
:101390005DF8047B704700BF80B485B000AFF86093
:1013A0000B467A60FB72FB68D3F80821FB7A0721B1
:1013B00001FA03F3DB431A40FB7A796801FA03F37D
:1013C0001A43FB68C3F808211437BD465DF8047B57
:1013D000704700BF80B485B000AFF8600B467A60FC
:1013E000FB72FB68D3F80C21FB7A072101FA03F3A7
:1013F000DB431A40FB7A796801FA03F31A43FB686E
:10140000C3F80C211437BD465DF8047B704700BF5C
:1014100080B582B000AF78607B68284A934218D1CB
:101420004FF40060FFF79EFA00BF4FF40060FFF733
:10143000B5FA0346002BF8D14FF40060FFF71EF910
:1014400000BF4FF40060FFF735F90346002BF8D1D9
:1014500030E07B681A4A934214D11A48FFF782FAA7
:1014600000BF1848FFF79AFA0346002BF9D1154838
:10147000FFF704F900BF1348FFF71CF90346002BE0
:10148000F9D117E07B68104A934213D10F48FFF758
:1014900069FA00BF0D48FFF781FA0346002BF9D126
:1014A0000A48FFF7EBF800BF0848FFF703F90346C7
:1014B000002BF9D10837BD4680BD00BF08000340AE
:1014C0000800024880000010084002480001001097
:1014D00080B485B000AF786039603B78C3F3020315
:1014E000DBB21A467B88C3F309039BB21B04134388
:1014F000FB607B68FA68C3F8F021FB78C3F3001344
:10150000DBB21A07FB78C3F38103DBB29B061A43F5
:10151000FB78C3F34013DBB25B071343FB60FB783C
:10152000C3F38013DBB29B07FA681343FB607B684D
:10153000D3F8F021FB68134343F000427B68C3F803
:10154000F0211437BD465DF8047B704780B483B04A
:1015500000AF78607B68D3F8843043F080627B68AA
:10156000C3F884200C37BD465DF8047B704700BF8C
:1015700080B483B000AF78607B68D3F8843023F008
:1015800080627B68C3F884200C37BD465DF8047B1D
:10159000704700BF80B500AF0120FFF7E3F90120DD
:1015A000FFF76CF880BD00BF80B582B000AF7860F7
:1015B0003960FFF7EFFF3B685A697B681A603B6848
:1015C0005B6843F400427B68C3F880203B689A68FC
:1015D0007B68C3F8A0203B68DA687B68C3F8A42066
:1015E0003B681A697B68C3F880223B681A687B688D
:1015F000C3F8B8200837BD4680BD00BF80B485B0B1
:1016000000AFF860B9603B601346FB71FB79002BBB
:1016100009D1BA6840F21F731340FA68396828315B
:1016200042F8213007E0BA68054B1340FA68396880
:10163000283142F821301437BD465DF8047B7047ED
:1016400000001F0780B485B000AF78607B68D3F8D6
:10165000803043F000427B68C3F880200023FB7396
:1016600017E0FB7B0F4A52F82330BB60BB68D3F80E
:10167000803003F44033002B08D000E000BFBB688B
:10168000D3F8803003F08053002BF7D1FB7B01337C
:10169000FB73FB7B032BE4D91437BD465DF8047B59
:1016A000704700BFBC62000880B485B000AF7860AE
:1016B0000B46FB70FB78032B03D9FB78043BFB60E4
:1016C00001E0FB78FB607B68D3F8403123F00F0228
:1016D0007B68C3F840217B68D3F84021FB681A433C
:1016E0007B68C3F840211437BD465DF8047B704722
:1016F00080B582B000AF786039603B68786859681F
:101700000022002300F028F83B687868596801221D
:10171000002300F021F83B687868996800220123D3
:1017200000F01AF83B68786899680122012300F0FC
:1017300013F83B681A697B68C3F880203B68DA6855
:101740007B68C3F8B8203B6878681968FFF7C0FE6B
:101750000837BD4680BD00BF80B48DB000AFF860D3
:10176000B9603B601346FB71FB79002B13D1082352
:10177000FB624FF4E0637B620023BB621F233B628A
:101780003B7AC3F30403DBB2FB617B7AC3F302034E
:10179000DBB2FB7613E01823FB624FF0E0637B6261
:1017A0001023BB624FF4F8133B62BB7AC3F304030C
:1017B000DBB2FB61FB7AC3F30203DBB2FB76FB68AF
:1017C0003A68283253F822307B617B6ADB437A69BE
:1017D00013407B61FA7EFB6A02FA03F37A691343D2
:1017E0007B613B6ADB437A6913407B61BB6AFA69C0
:1017F00002FA03F37A6913437B61FB683A68283283
:10180000796943F822103437BD465DF8047B704790
:1018100080B485B000AF78600B46FB707B68D3F86E
:101820008030FB60FB6823F00303FB60FB78FA6801
:101830001343FB607B68FA68C3F880201437BD4609
:101840005DF8047B704700BF80B586B000AF78605C
:1018500039600023FB7509E0FB7D394A52F82330DB
:101860001846FFF785FEFB7D0133FB75FB7D032BDF
:10187000F2D900233B613B681B7803F00303DBB222
:10188000002B02D04FF400633B610023FB7521E085
:10189000FB7D2B4A52F82330D3F88430FB60FB6881
:1018A00023F44073FB603B681B78C3F38103DBB216
:1018B0001B02FA681343FB60FA683B691343FB6041
:1018C000FB7D1F4A52F82330FA68C3F88420FB7D61
:1018D0000133FB75FB7D032BDAD93B685B6843F46E
:1018E000000343F400437A68C2F800323B689B6807
:1018F00043F001027B68C3F804223B681B7803F0C5
:101900000303DBB2022B07D17B68D3F8043243F424
:1019100080327B68C3F804220023FB7509E0FB7D5D
:10192000074A52F823301846FFF710FEFB7D0133BB
:10193000FB75FB7D032BF2D91837BD4680BD00BF78
:10194000BC62000880B489B000AFF860B9607A600A
:101950007B681B7BBB61FB68D3F888307B61BB680D
:10196000012202FA03F3DB437A6913407B61BB680F
:10197000BA6902FA03F37A6913437B61FB687A69F7
:10198000C3F888207B685B7B5BB2002B29DB0023DC
:10199000FB61BB68012B0AD10823FB61FB68D3F80C
:1019A000B03023F4F852FB68C3F8B0200CE0BB68F9
:1019B000002B09D10023FB61FB68D3F8B03023F082
:1019C0001F02FB68C3F8B020FB68D3F8B0307A6818
:1019D000527B51B2FA6901FA02F21A43FB68C3F86A
:1019E000B020FB68D3F8C8207B685B681A43FB68AB
:1019F000C3F8C820FB68D3F8D0207B689B681A43E3
:101A0000FB68C3F8D0207B681968FB68BA6880322D
:101A100043F822102437BD465DF8047B704700BFB1
:101A200080B584B000AF7860144B1B68002B02D1E6
:101A3000124B134A1A60114B1B68FB607B6803331F
:101A400023F003037B600D4B1A687B6813440D4A37
:101A5000934207D2094B1A687B681344074A136004
:101A6000FB6806E001F098FF02460C2313604FF07C
:101A7000FF3318461037BD4680BD00BFC889FE1F22
:101A800000000020C0FF032080B400AFBD465DF819
:101A9000047B704780B483B000AF786039607B68A6
:101AA0001A6C3B681A437B681A640C37BD465DF8B4
:101AB000047B704780B483B000AF786039607B6886
:101AC0001A6C3B68DB431A407B681A640C37BD46CE
:101AD0005DF8047B704700BF80B483B000AF7860CE
:101AE0007B689B6BDBB223F07F03DBB218460C37BD
:101AF000BD465DF8047B704780B483B000AF78606A
:101B000039603B684FF480329A407B689A660C37A4
:101B1000BD465DF8047B704780B483B000AF786049
:101B200039607B68D3F808213B681A437B68C3F8A7
:101B300008210C37BD465DF8047B704780B483B044
:101B400000AF786039607B68D3F808213B68DB43DD
:101B50001A407B68C3F808210C37BD465DF8047B4A
:101B6000704700BF80B483B000AF78607B684FF4EB
:101B70000042C3F818210C37BD465DF8047B70475E
:101B800080B483B000AF78607B68D3F8143103F47D
:101B90008053002B14BF01230023DBB218460C37FF
:101BA000BD465DF8047B704780B483B000AF7860B9
:101BB0007B68D3F8143103F40063002B14BF0123B6
:101BC0000023DBB218460C37BD465DF8047B704736
:101BD00080B483B000AF786039607B68D3F80C21A3
:101BE0003B68DB431A407B68C3F80C210C37BD46C9
:101BF0005DF8047B704700BF80B483B000AF7860AD
:101C00007B68D3F8143103F00803002B14BF0123C1
:101C10000023DBB218460C37BD465DF8047B7047E5
:101C200080B584B000AF78600023FB737B685B688D
:101C30005B6898470346FB73FB7B18461037BD462D
:101C400080BD00BF80B586B000AFF860B9607A6033
:101C50000423FB75FB685B6893F82930002B00D0E8
:101C600007E0F868B9687A6800F008F80346FB7581
:101C700000BFFB7D18461837BD4680BD80B586B0D5
:101C800000AFF860B9607A600423FB75FB689B685D
:101C90003B61FB685B6893F82930002B44D1022339
:101CA000FB753B691B7EDBB283F00103DBB2002BCB
:101CB0003AD0BB68002B35D07B68002B32D03B6913
:101CC000BA681A603B697A689A603B690022DA60F8
:101CD0003B6901221A76FB685B6893F82B30002B76
:101CE0000CD0FB681B681846FFF73CFFFB681B68BD
:101CF00018464FF08041FFF70FFF06E0FB681B68B6
:101D000018464FF40051FFF7C5FE0023FB75FB6832
:101D10001A68FB685B6893F82D3010461946FFF788
:101D2000EBFE01E00323FB75FB7D18461837BD462B
:101D300080BD00BF80B584B000AF78607B689B68D1
:101D4000FB60FB68DA68FB689B689A4240D27B685C
:101D50005B6893F82B30002B27D01AE0FB68DA6819
:101D6000FB689B689A4212D27B681968FB681A6804
:101D7000FB68DB6813441B789BB208461946FFF7E3
:101D800007F9FB68DB685A1CFB68DA6001E000BFFA
:101D900053E07B681B681846FFF7F2FE034683F0AA
:101DA0000103DBB2002BD9D147E07B681968FB68DF
:101DB0001A68FB68DB6813441B789BB20846194617
:101DC000FFF7E6F8FB68DB685A1CFB68DA6034E072
:101DD0007B681B681846FFF7E7FE0346002B2CD0F4
:101DE0007B685B6893F82B30002B07D07B681B68FF
:101DF00018464FF08041FFF7A1FE06E07B681B68A4
:101E000018464FF40051FFF755FE00BF7B681B6872
:101E10001846FFF761FE0346802BF7D0FB680022CF
:101E20001A76FB6800221A607B685B689B68002B4F
:101E300003D07B685B689B6898471037BD4680BDC0
:101E400090B585B000AF78607B689B68FB607B686D
:101E50005B6893F82C30002B4ED032E0FB685A6957
:101E6000FB681B699A4211D2FB685A68FB685B6980
:101E7000D4187B681B681846FFF7B0F80346DBB23E
:101E80002370FB685B695A1CFB685A61FB685A69DE
:101E9000FB681B699A4214D1FB6800225A767B6862
:101EA0001B6818464FF0C041FFF792FE7B685B68E5
:101EB000DB68002B04D07B685B68DB6898470BE02D
:101EC0000AE07B681B681846FFF796FE034683F01E
:101ED0000103DBB2002BC1D1FB685A69FB681B69A7
:101EE0009A423AD2FB681A69FB685B69D31A786830
:101EF000194600F035F830E0FB685A69FB681B6949
:101F00009A4211D2FB685A68FB685B69D4187B68F7
:101F10001B681846FFF762F80346DBB22370FB68C4
:101F20005B695A1CFB685A61FB685A69FB681B694C
:101F30009A4212D1FB6800225A767B681B681846C9
:101F40004FF44041FFF7B6FD7B685B68DB68002B10
:101F500003D07B685B68DB6898471437BD4690BD4B
:101F600080B584B000AF786039600023FB607B6887
:101F70005B6893F82C301A4601239340BB603A68A3
:101F8000BB689A4203D23B68013BFB6002E0BB683E
:101F9000013BFB607B681A687B685B6893F82C30B8
:101FA00010461946FA68FFF7C3F91037BD4680BDE1
:101FB00080B400AF044BDB6803F4E0631B0A1846EF
:101FC000BD465DF8047B704700ED00E080B483B04F
:101FD00000AF0346FB7197F90730002B0BDB084974
:101FE00097F907305B09FA7902F01F02012000FA25
:101FF00002F241F823200C37BD465DF8047B7047A0
:1020000000E100E080B483B000AF03463960FB71AB
:1020100097F90730002B0ADB0D4997F907303A682A
:10202000D2B29200D2B20B4483F800230AE00949ED
:10203000FB7903F00F03043B3A68D2B29200D2B2AC
:102040000B441A760C37BD465DF8047B704700BF21
:1020500000E100E000ED00E080B489B000AFF8607E
:10206000B9607A60FB6803F00703FB61FB69C3F1A9
:102070000703062B28BF0623BB61FB690633062B2B
:1020800002D9FB69013B00E000237B61BB690122AF
:1020900002FA03F35A1EBB681A407B699A407B69B7
:1020A000012101FA03F3591E7B680B4013431846C4
:1020B0002437BD465DF8047B704700BF80B483B011
:1020C00000AF78600B46FB701346BB70F878FB7866
:1020D0007A6806339B0013445B6823F00702BB78E1
:1020E0001A437968831D9B000B445A600C37BD4628
:1020F0005DF8047B704700BF80B582B000AF7860A8
:102100003960786839680122FEF7D8FE0837BD4685
:1021100080BD00BF80B483B000AF78607B681B6C6B
:1021200023F00F0343F002027B681A640C37BD46AC
:102130005DF8047B704700BF80B582B000AF00231C
:10214000FB712D4804212D4AFEF722F92C482D4918
:10215000FFF7D2FF2A4800210122FFF7AFFF2848EE
:10216000102104220123FFF791F8254800210422C1
:102170000023FFF7B3F82248FFF7CCFF1E480521E4
:10218000214AFEF705F91E4810210022FFF7E8F862
:102190001B4810210322FFF7FFF8194810210522E0
:1021A000FFF718F9164813210522FFF713F9FFF777
:1021B000FFFE034618463F210022FFF74DFF03466E
:1021C00057201946FFF71EFF5720FFF7FFFEFFF7C6
:1021D000EFFE034618463F210022FFF73DFF03466E
:1021E00059201946FFF70EFF5920FFF7EFFEFB7944
:1021F00018460837BD4680BD0081024820630008AC
:1022000000000340CC620008D862000880B500AF2F
:102210000148FFF78FFD80BD0088FE1F80B500AF2D
:102220000148FFF70DFE80BD0088FE1F80B400AF9F
:10223000044BDB6803F4E0631B0A1846BD465DF8F7
:10224000047B704700ED00E080B483B000AF03462C
:102250003960FB7197F90730002B0ADB0D4997F9BC
:1022600007303A68D2B29200D2B20B4483F800230E
:102270000AE00949FB7903F00F03043B3A68D2B244
:102280009200D2B20B441A760C37BD465DF8047B3F
:10229000704700BF00E100E000ED00E080B489B0CD
:1022A00000AFF860B9607A60FB6803F00703FB6178
:1022B000FB69C3F10703062B28BF0623BB61FB693B
:1022C0000633062B02D9FB69013B00E000237B614A
:1022D000BB69012202FA03F35A1EBB681A407B69EC
:1022E0009A407B69012101FA03F3591E7B680B4078
:1022F000134318462437BD465DF8047B704700BF82
:1023000080B582B000AF78607B68013BB3F1807F1D
:1023100001D301230FE00A4A7B68013B53604FF071
:10232000FF303F21FFF790FF054B00229A60044BDE
:1023300007221A60002318460837BD4680BD00BF3B
:1023400010E000E090B486B000AF78600023FB732B
:102350006B497A681346DB0013449B000B44183327
:102360001B68BB60674B1B68002B09D17A6813465A
:10237000DB0013449B00624A1344624A1360BBE0D3
:10238000604B1B687B61BB683B61ABE07B699B6911
:102390001A463B699B1A3B613B69002B7ADC7B69DF
:1023A0005B68002B26D07B6959687A681346DB008E
:1023B00013449B00524A13440B607B695968504890
:1023C0007A681346DB0013449B00034459604C4970
:1023D0007A681346DB0013449B000B447A691A6049
:1023E0007A681346DB0013449B00454A1A447B6914
:1023F0005A601CE0434B196841487A681346DB0079
:1024000013449B00034419603E4B19687A681346D5
:10241000DB0013449B003A4A13444B607A6813462E
:10242000DB0013449B00364A1344364A1360344998
:102430007A681346DB0013449B000B441B689A69BF
:102440003B69D1182E487A681346DB0013449B0081
:102450000344183319602A497A681346DB00134491
:102460009B000B44196826487A681346DB00134426
:102470009B0003441B689869214C7A681346DB0073
:1024800013449B00234418331B68C31A8B61012338
:10249000FB7324E03B69002B21DD7B691B68002B6B
:1024A0001DD117497A681346DB0013449B000B4487
:1024B0007A695A607A681346DB0013449B00104A1D
:1024C0001A447B691A6039690D487A681346DB0043
:1024D00013449B000344183319600123FB737B6989
:1024E0001B687B617B69002B06D0FB7B83F00103BB
:1024F000DBB2002B7FF44AAF1837BD4690BC704763
:10250000B48BFE1FE889FE1F80B485B000AF7860F1
:102510007A681346DB0013449B00294A1344FB608E
:10252000FB685B68002B07D1FB681B68002B03D19D
:10253000244B00221A603DE0FB685B68002B14D13D
:10254000FB681B681F4A13601E4B1B6800225A6001
:102550001C4B1B681B4A12689169FA6892690A440D
:102560009A61FB6800221A6024E0FB681B68002B5C
:1025700007D1FB685B6800221A60FB6800225A6082
:1025800018E0FB685B68FA6812681A60FB681B68F1
:10259000FA6852685A60FB681B68FA6812689169A9
:1025A000FA6892690A449A61FB6800221A60FB6823
:1025B00000225A601437BD465DF8047B704700BFA7
:1025C000B48BFE1FE889FE1F80B582B000AF2F4B91
:1025D0001B687B6050E07B6893F82030002B13D0A1
:1025E0007B685B691846FFF78FFF7B6800225A7390
:1025F0007B685B691A4601239340DA43244B1B68CE
:102600001340234A136034E07B681B7B002B12D1FC
:102610007B685B7B012B2CD17B685B691846FFF7DD
:1026200073FF7B6802225A737B689B687A68126921
:10263000104698471DE07B681B7B012B18D17B68F7
:102640005B7B012B15D17B685B691846FFF75CFF4C
:102650007B68DA697B689A617B685B691846FFF77B
:1026600071FE7B689B687A6812691046984700E0A3
:1026700009E0064B1B687B607B68002B03D07B68FE
:102680009B69002BA7D00837BD4680BDE889FE1F97
:10269000EC89FE1F80B582B000AF0E4B1B687B60DB
:1026A0000D4B1B6801330C4A13607B68002B0ED066
:1026B0007B689B69012B05D97B689B695A1E7B68E7
:1026C0009A6104E07B6800229A61FFF77DFF08377A
:1026D000BD4680BDE889FE1FF089FE1F80B584B02D
:1026E00000AF78600023FB737B681B7883F00103E5
:1026F000DBB2002B20D0134B00221A601248FFF7E8
:10270000FFFD0346FB73FB7B012B15D0FFF78EFD0E
:10271000034618463F210022FFF7C0FD03464FF055
:10272000FF301946FFF790FD084B00221A607B68C6
:1027300001221A700023FB73FB7B18461037BD463D
:1027400080BD00BFE889FE1F80320200EC89FE1FB9
:1027500080B489B000AFF8607A603B600B46FB72D2
:102760000023FB610023BB6100237B61FB68B3F5A1
:102770007A7F02D20023FB617BE00023BB6175E01E
:10278000BB6901229A403E4B1B681340002B6AD163
:10279000BB6901229A403A4B1B681343384A1360C5
:1027A0003849BA691346DB0013449B000B441033CD
:1027B000BA695A603349BA691346DB0013449B0077
:1027C0000B440833FA7A1A712E49BA691346DB00B2
:1027D00013449B000B44083302225A71FB682A4AB7
:1027E000A2FB03239B097B617B69591C2548BA69BD
:1027F0001346DB0013449B0003441833196021493E
:10280000BA691346DB0013449B000B4418337A6902
:102810005A601C49BA691346DB0013449B000B4401
:1028200008337A681A601749BA691346DB00134403
:102830009B000B4410333A681A601249BA69134678
:10284000DB0013449B000B4400225A600D49BA6917
:102850001346DB0013449B000B4400221A60BB6943
:102860000133FB6105E0BB690133BB61BB69072B29
:1028700086D9FB6918462437BD465DF8047B70474E
:10288000EC89FE1FB48BFE1FD34D621080B584B05F
:1028900000AF78600123FB737B685A1E1A49134608
:1028A000DB0013449B000B4408335B79022B26D1D9
:1028B0007B685A1E7B68591E13480B46DB000B448D
:1028C0009B00034418335B68591C0F481346DB0018
:1028D00013449B000344183319607B685A1E0A494D
:1028E0001346DB0013449B000B44083301225A714A
:1028F0007B68013B1846FFF725FD0023FB73FB7B3C
:1029000018461037BD4680BDB48BFE1F80B483B01F
:1029100000AF786039607B68D3F880203B68103363
:10292000194601238B401A437B68C3F880200C377B
:10293000BD465DF8047B704780B584B000AF786019
:102940007B681B7E022B49D17B685A697B681B69B7
:1029500010461946FEF728FE0023FB602FE07B6837
:10296000FA6853F8223019687B68FA6853F8223005
:102970005B6808461946FEF7BBFE7B68FA6853F8A9
:1029800022301B6818460321FEF742FF7B68FA6875
:1029900053F822301B7A83F00103DBB2002B05D001
:1029A0007B685B691846F968FFF7B0FF7B68FA68D7
:1029B00053F8223000225A72FB680133FB60FB6837
:1029C000032BCCD97B685B7E002B04D07B685B69D2
:1029D0001846FEF737FE7B6800221A767B681B7E5E
:1029E00018461037BD4680BD80B485B000AF786012
:1029F0007B6803F00703FB600C4BDB68BB60BA68C5
:102A00004FF6FF031340BB60FB681A02BB68134319
:102A100043F0BF6343F40033BB60044ABB68D36038
:102A20001437BD465DF8047B704700BF00ED00E041
:102A300080B582B000AF0120FFF7D6FF72B6214B00
:102A4000214A9A60BFF34F8F62B61E4A1D4BD3F8DE
:102A5000883043F47003C2F888301C4B03F5805370
:102A600014331B687B607B6823F00F037B607B68FB
:102A700043F004037B60154B03F5805314337A68ED
:102A80001A60104A0F4B5B6923F0100353610D4A23
:102A90000C4B5B6923F0080353610A4A094B5B6ADC
:102AA00023F480335362074A064B5B6A23F40033F6
:102AB0005362044A034B5B6A23F480235362083752
:102AC000BD4680BD00ED00E0000000080010005889
:102AD00080B485B000AF78600023FB737B6801226F
:102AE0001A70FB7B18461437BD465DF8047B7047AF
:102AF00080B400AF024B1846BD465DF8047B7047BA
:102B0000001BB700B0B586B000AF134B3C1D1D468F
:102B10000FCD0FC42B6823603B1D1846FDF732FD17
:102B20000020FDF757FE0020FDF70CFE0420FDF706
:102B3000DDFEFDF757FF01202021FDF763FF002098
:102B4000FDF714FE0120FDF7F9FE0120FDF7E2FE7E
:102B50001837BD46B0BD00BF9463000880B400AF15
:102B6000044BDB6803F4E0631B0A1846BD465DF8BE
:102B7000047B704700ED00E080B483B000AF0346F3
:102B8000FB7197F90730002B0BDB084997F90730E9
:102B90005B09FA7902F01F02012000FA02F241F803
:102BA00023200C37BD465DF8047B704700E100E050
:102BB00080B483B000AF03463960FB7197F90730EA
:102BC000002B0ADB0D4997F907303A68D2B2920020
:102BD000D2B20B4483F800230AE00949FB7903F0E1
:102BE0000F03043B3A68D2B29200D2B20B441A7679
:102BF0000C37BD465DF8047B704700BF00E100E084
:102C000000ED00E080B489B000AFF860B9607A6090
:102C1000FB6803F00703FB61FB69C3F10703062BA5
:102C200028BF0623BB61FB690633062B02D9FB696B
:102C3000013B00E000237B61BB69012202FA03F340
:102C40005A1EBB681A407B699A407B69012101FAD0
:102C500003F3591E7B680B40134318462437BD46C7
:102C60005DF8047B704700BF80B483B000AF78602C
:102C70007B68D3F8043243F400727B68C3F8042203
:102C80000C37BD465DF8047B704700BF80B485B04B
:102C900000AFF860B9607A60FB68BA68603253F8D8
:102CA00022207B68012101FA03F342EA0301FB6859
:102CB000BA68603243F822101437BD465DF8047BD1
:102CC000704700BF80B485B000AFF860B9607A602B
:102CD0007B681968FB68BA68A03243F82210143781
:102CE000BD465DF8047B704780B483B000AF786068
:102CF00039607B683A68C03253F822309BB218467C
:102D00000C37BD465DF8047B704700BF90B585B0B9
:102D100000AF78607B681B7E022B40F099807B6857
:102D2000DB681846FFF708FE0346BB737B68DB6869
:102D30005A697B689B681046196800220023FEF7D9
:102D40005DFC7B68DB685A697B685B6810461946E6
:102D5000FEF77AFD0023FB732EE07B681B68FA7B8D
:102D600053F82230BB60BB689A68BB685B7B19462E
:102D7000BB681B6810461A46FEF7E4FDBB689A68FC
:102D8000BB681B689B78C3F30303DBB21946BB68BF
:102D90005B6810461A46FFF795FF7B68DB685A6947
:102DA000BB681B7B1946BB685B7B10461A46FFF766
:102DB0006DFFFB7B0133FB73FB7B042BCDD97B6861
:102DC0005B681B7A03F00803DBB2002B2CD07B6816
:102DD0001B69002B28D07B681B691B68DCB2FFF7DE
:102DE000BDFE01467B681B695A687B681B699B684E
:102DF000084611461A46FFF705FF024663B2184619
:102E00001146FFF7D5FE7B68DB685A697B685B7EFD
:102E100010461946FEF748FC7B681B691B68DBB24D
:102E20005BB21846FFF7A8FE7B685B69002B02D0F7
:102E30007B685B6998477B689B7E002B05D07B682D
:102E4000DB685B691846FFF70FFF7B68BA7B1A7671
:102E50007B681B7E18461437BD4690BD80B582B096
:102E600000AF78607B68DB685B691846FFF7FCFEA3
:102E70000837BD4680BD00BF80B584B000AF786024
:102E80007B689A687B681B689B78C3F30303DBB29B
:102E900010461946FFF728FF0346FB81FB891846B9
:102EA0001037BD4680BD00BF80B582B000AF0023A3
:102EB000FB711148FFF70CFE0346FB71FB79002BF9
:102EC00004D10E48FFF722FF0346FB71FB79002B6C
:102ED00004D10B48FEF7A4FE0346FB71FB79002BDF
:102EE00004D10848FFF7FAFB0346FB71FB7918464B
:102EF0000837BD4680BD00BFF889FE1F0C89FE1F44
:102F00000088FE1FF489FE1F80B584B000AFF86012
:102F1000B9607A607B680548B9681A46FEF792FE88
:102F20007B6818461037BD4680BD00BF0088FE1F75
:102F300080B400AF064B1B68002B04DD044B1B68FC
:102F4000013B034A1360BD465DF8047B704700BF38
:102F5000D48CFE1F80B483B000AF7860064A7B68D3
:102F6000136000BF044B1B68002BFBDC0C37BD4615
:102F70005DF8047B704700BFD48CFE1FB0B582B0F3
:102F800000AF7860284BD3E90045284B1B68284ADE
:102F900052F82330184600F037FA02460B46204616
:102FA000294600F0E3F802460B461F49C1E9002319
:102FB0001E4B1B681E497A6841F823201B4B1B6877
:102FC0001B4A52F82330184600F01EFA164BD3E97C
:102FD000002300F0CDF802460B461349C1E9002357
:102FE000124B1B680133114A1360104B1A68114BC6
:102FF00083FB02135911D317CB1A642101FB03F38E
:10300000D31A0A4A1360084BD3E900231046194625
:103010004FF00002084B00F087FB02460B461046BB
:1030200019460837BD46B0BD108AFE1F188AFE1F1C
:103030001C8AFE1F1F85EB51000059402DE9B04F3F
:1030400092B008AFFFF730FF034687F8273097F8B4
:103050002730002B00D0FEE74FF47A700121384A68
:103060000023FFF775FB03463B623B6A1846FFF7F8
:103070000DFC344801F0AAF93348FFF7EFFE0520B4
:10308000FFF768FF3148FFF7F7FE03461846FFF7E2
:1030900075FF02460B461046194600F02DFC03460C
:1030A000FB612B48FFF7E8FE034607EE903AF8EE87
:1030B000677AC7ED067A2748FFF7DEFE034607EE7C
:1030C000903AF8EE677AC7ED057A2348FFF7D4FE09
:1030D000034607EE903AF8EE677AC7ED047A1F4888
:1030E000FFF7CAFE034607EE903AF8EE677AC7ED9F
:1030F000037AF86900F09AF9C7E90001B86900F0AD
:1031000095F982468B46786900F090F980468946A9
:10311000386900F08BF904460D46F86800F086F92E
:1031200002460B46CDE900ABCDE90289CDE9044565
:10313000CDE906230A48D7E9002301F0D1F89BE73F
:10314000312F0008B86300080C89FE1F6888FE1F35
:103150008888FE1FA888FE1FC888FE1FE888FE1FFB
:10316000C463000881F0004102E000BF83F0004327
:1031700030B54FEA41044FEA430594EA050F08BF12
:1031800090EA020F1FBF54EA000C55EA020C7FEAD6
:10319000645C7FEA655C00F0E2804FEA5454D4EB53
:1031A0005555B8BF6D420CDD2C4480EA020281EA1D
:1031B000030382EA000083EA010180EA020281EA55
:1031C0000303362D88BF30BD11F0004F4FEA0131A7
:1031D0004FF4801C4CEA113102D0404261EB4101B6
:1031E00013F0004F4FEA03334CEA133302D052423C
:1031F00063EB430394EA050F00F0A780A4F10104F8
:10320000D5F1200E0DDB02FA0EFC22FA05F2801831
:1032100041F1000103FA0EF2801843FA05F3594117
:103220000EE0A5F120050EF1200E012A03FA0EFC96
:1032300028BF4CF0020C43FA05F3C01851EBE371C0
:1032400001F0004507D54FF0000EDCF1000C7EEBDD
:1032500000006EEB0101B1F5801F1BD3B1F5001F1B
:103260000CD349085FEA30004FEA3C0C04F101043A
:103270004FEA445212F5800F80F09A80BCF1004F63
:1032800008BF5FEA500C50F1000041EB045141EAE5
:10329000050130BD5FEA4C0C404141EB010111F4E6
:1032A000801FA4F10104E9D191F0000F04BF014691
:1032B0000020B1FA81F308BF2033A3F10B03B3F16F
:1032C00020020CDA0C3208DD02F1140CC2F10C02FF
:1032D00001FA0CF021FA02F10CE002F11402D8BF5D
:1032E000C2F1200C01FA02F120FA0CFCDCBF41EA29
:1032F0000C019040E41AA2BF01EB0451294330BDF8
:103300006FEA04041F3C1CDA0C340EDC04F11404D4
:10331000C4F1200220FA04F001FA02F340EA0300AB
:1033200021FA04F345EA030130BDC4F10C04C4F1F1
:10333000200220FA02F001FA04F340EA03002946D1
:1033400030BD21FA04F0294630BD94F0000F83F41B
:10335000801306BF81F480110134013D4EE77FEAFE
:10336000645C18BF7FEA655C29D094EA050F08BF4A
:1033700090EA020F05D054EA000C04BF194610462B
:1033800030BD91EA030F1EBF0021002030BD5FEA6F
:10339000545C05D14000494128BF41F0004130BD97
:1033A00014F580043CBF01F5801130BD01F00045EB
:1033B00045F0FE4141F470014FF0000030BD7FEA5E
:1033C000645C1ABF194610467FEA655C1CBF0B4659
:1033D000024650EA013406BF52EA033591EA030F70
:1033E00041F4002130BD00BF90F0000F04BF002168
:1033F000704730B54FF4806404F132044FF000059B
:103400004FF0000150E700BF90F0000F04BF002113
:10341000704730B54FF4806404F1320410F0004579
:1034200048BF40424FF000013EE700BF42004FEA74
:10343000E2014FEA31014FEA02701FBF12F07F43F1
:1034400093F07F4F81F06051704792F0000F14BFEE
:1034500093F07F4F704730B54FF4607401F0004532
:1034600021F0004120E700BF50EA010208BF704789
:1034700030B54FF000050AE050EA010208BF70477E
:1034800030B511F0004502D5404261EB41014FF4E7
:10349000806404F132045FEA915C3FF4DCAE4FF0EB
:1034A00003025FEADC0C18BF03325FEADC0C18BFD2
:1034B000033202EBDC02C2F1200300FA03FC20FA23
:1034C00002F001FA03FE40EA0E0021FA02F1144470
:1034D000C1E600BF70B54FF0FF0C4CF4E06C1CEA85
:1034E00011541DBF1CEA135594EA0C0F95EA0C0FFA
:1034F00000F0DEF82C4481EA030621EA4C5123EA6D
:103500004C5350EA013518BF52EA033541F480119B
:1035100043F4801338D0A0FB02CE4FF00005E1FB4E
:1035200002E506F00042E0FB03E54FF00006E1FB98
:1035300003569CF0000F18BF4EF0010EA4F1FF04DB
:10354000B6F5007F64F5407404D25FEA4E0E6D411B
:1035500046EB060642EAC62141EA55514FEAC5202C
:1035600040EA5E504FEACE2EB4F1FD0C88BFBCF5A8
:10357000E06F1ED8BEF1004F08BF5FEA500E50F159
:10358000000041EB045170BD06F0004646EA01011F
:1035900040EA020081EA0301B4EB5C04C2BFD4EB51
:1035A0000C0541EA045170BD41F480114FF0000E4A
:1035B000013C00F3AB8014F1360FDEBF002001F0B8
:1035C000004170BDC4F10004203C35DA0C341BDC32
:1035D00004F11404C4F1200500FA05F320FA04F004
:1035E00001FA05F240EA020001F0004221F0004138
:1035F00010EBD37021FA04F642EB06015EEA430EAB
:1036000008BF20EAD37070BDC4F10C04C4F12005DA
:1036100000FA04F320FA05F001FA04F240EA02008D
:1036200001F0004110EBD37041F100015EEA430E5E
:1036300008BF20EAD37070BDC4F1200500FA05F27E
:103640004EEA020E20FA04F301FA05F243EA0203FD
:1036500021FA04F001F0004121FA04F220EA02000C
:1036600000EBD3705EEA430E08BF20EAD37070BD52
:1036700094F0000F0FD101F00046400041EB010132
:1036800011F4801F08BF013CF7D041EA060195F014
:10369000000F18BF704703F00046520043EB0303CE
:1036A00013F4801F08BF013DF7D043EA06037047BB
:1036B00094EA0C0F0CEA135518BF95EA0C0F0CD0C6
:1036C00050EA410618BF52EA4306D1D181EA03010C
:1036D00001F000414FF0000070BD50EA410606BF06
:1036E0001046194652EA430619D094EA0C0F02D14B
:1036F00050EA013613D195EA0C0F05D152EA033690
:103700001CBF104619460AD181EA030101F00041AD
:1037100041F0FE4141F470014FF0000070BD41F0F6
:10372000FE4141F4780170BD70B54FF0FF0C4CF4D0
:10373000E06C1CEA11541DBF1CEA135594EA0C0FEF
:1037400095EA0C0F00F0A7F8A4EB050481EA030E3C
:1037500052EA03354FEA013100F088804FEA033323
:103760004FF0805545EA131343EA12634FEA0222F1
:1037700045EA111545EA10654FEA00260EF00041B2
:103780009D4208BF964244F1FD0404F5407402D204
:103790005B084FEA3202B61A65EB03055B084FEA95
:1037A00032024FF480104FF4002CB6EB020E75EB92
:1037B000030E22BFB61A754640EA0C005B084FEABA
:1037C0003202B6EB020E75EB030E22BFB61A754637
:1037D00040EA5C005B084FEA3202B6EB020E75EB82
:1037E000030E22BFB61A754640EA9C005B084FEAFA
:1037F0003202B6EB020E75EB030E22BFB61A754607
:1038000040EADC0055EA060E18D04FEA051545EAF5
:1038100016754FEA06164FEAC30343EA52734FEA9E
:10382000C2025FEA1C1CC0D111F4801F0BD141EA17
:1038300000014FF000004FF0004CB6E711F4801F7C
:1038400004BF01430020B4F1FD0C88BFBCF5E06F5C
:103850003FF6AFAEB5EB030C04BFB6EB020C5FEA6C
:10386000500C50F1000041EB045170BD0EF0004EC1
:103870004EEA113114EB5C04C2BFD4EB0C0541EAF3
:10388000045170BD41F480114FF0000E013C90E6F0
:1038900045EA060E8DE60CEA135594EA0C0F08BFB4
:1038A00095EA0C0F3FF43BAF94EA0C0F0AD150EAB3
:1038B00001347FF434AF95EA0C0F7FF425AF104646
:1038C00019462CE795EA0C0F06D152EA03353FF46E
:1038D000FDAE1046194622E750EA410618BF52EAEB
:1038E00043067FF4C5AE50EA41047FF40DAF52EABF
:1038F00043057FF4EBAE12E74FEA4102B2F1E04339
:1039000024BFB3F5001CDCF1FE5C0DD901F0004CC6
:103910004FEAC0024CEA5070B2F1004F40EB830016
:1039200008BF20F00100704711F0804F21D113F142
:103930003872BCBF01F00040704741F480114FEA7B
:103940005252C2F11802C2F1200C10FA0CF320FA04
:1039500002F018BF40F001004FEAC1234FEAD32321
:1039600003FA0CFC40EA0C0023FA02F34FEA43038B
:10397000CCE77FEA625307D150EA01331EBF4FF014
:10398000FE4040F44000704701F0004040F0FE402F
:1039900040F40000704700BF014B1868704700BF3B
:1039A0008889FE1F70B50E4B0E4CE41AA41000253A
:1039B0001E46A54204D056F8253098470135F8E751
:1039C000FEF762F8084C094BE41AA41000251E46C5
:1039D000A54204D056F8253098470135F8E770BD68
:1039E000C489FE1FC489FE1FC489FE1FC489FE1F2F
:1039F00010B5431E0A44914204D011F8014B03F85C
:103A0000014FF8E710BD02440346934202D003F889
:103A1000011BFAE770472DE9F04788B0002B149F8F
:103A20001299109EDDF84CA01D46B8BF05F1004369
:103A300027F02007B6BF1D4600232D231446B8BF2C
:103A40001446462F0B7003D0452F03D1013601E0F9
:103A5000032300E002238DE8480406AB039307AB81
:103A6000049322462B4600F03BFE472F804602D1AE
:103A7000119BDB0726D5462F08EB060911D198F8D4
:103A80000030302B0AD1204629460022002302F0C4
:103A900093FB18B9C6F10106CAF80060DAF80030E5
:103AA0009944204629460022002302F085FB08B1F4
:103AB000CDF81C90079B4B4504D25A1C079230222C
:103AC0001A70F7E7079B159AC8EB0303404613608B
:103AD00008B0BDE8F08773B503460029B8BF494276
:103AE00003F8022BB4BF2D222B220929427019DDC5
:103AF0000DF1070426460A2291FBF2F502FB15118F
:103B00003031092D04F8011D2946F4DC3031651EE1
:103B100004F8011CB5421A460AD215F8012B03F825
:103B2000012BF7E730241A46214402F8024B597062
:103B3000101A02B070BD00002DE9F04F91B08B4615
:103B400015461E461A9F044601F004FDD0F800A059
:103B5000504600F06DFC00230E933B68099007333C
:103B600023F00703D3E9000103F108029BF8188052
:103B70003A60CBE9120100F031FC0128DBE91201C7
:103B800019D10022002302F021FB10B12D238BF864
:103B90004330A04BA04FB8F1470F88BF1F46032307
:103BA000CBF81030DBF8003023F00403CBF8003002
:103BB0004FF00009A1E000F011FCDBF8003048B93B
:103BC000964A974FB8F1470F88BF17460322CBF8A4
:103BD0001020E9E7DBF804209BED127B571C8DEDEC
:103BE0000A7B01D1062209E0B8F1670F02D0B8F1D3
:103BF000470F05D1002A40F0C7810122CBF80420ED
:103C0000DBF80420CDF8108043F480638DE80C00CD
:103C1000CBF800300DF1330302930DAB03930EABE1
:103C20000593002306932046DDE90A23FFF7F3FE00
:103C300008F0DF03472B07460AD10D9BD81C03DB96
:103C4000DBF80420934237DDA8F102085FFA88F818
:103C5000B8F1650F0D9915D8013942460BF15000A6
:103C60000D91FFF738FF0E9A8318012A8146CBF891
:103C7000103003DCDBF80020D10738D50133CBF856
:103C8000103034E0B8F1660F18D10029DBF80430A9
:103C900009DDCBF810101BB9DBF80020D20721D5C5
:103CA00001330B441CE01BB9DBF80020D00701D521
:103CB000023315E0012313E04FF067080D9B0E9AC5
:103CC000934207DBDBF80020CBF81030D10709D591
:103CD000013305E0002BD4BFC3F1020301231344D9
:103CE000CBF810300D9BCBF858304FF000099DF801
:103CF000333013B12D238BF84330009620465946BC
:103D00000FAA2B4600F05CF9013002D14FF0FF30D2
:103D100052E1DBF800305A0505D4204629463A46E0
:103D2000DBF8103008E1B8F1650F40F2D080DBE934
:103D300012010022002302F03FFA50B32046294628
:103D4000384A0123B0470130E0D00E9B0D9A9A42C9
:103D500009DBDBF80030D80705D4DBF800309F071B
:103D600000F1108107E1204629465246099BB047E1
:103D70000130CBD000270E9B013B9F42EDDA20465D
:103D800029460BF11A020123B0470130BED001379A
:103D9000F1E70D9B002B29DC20462946214A01230F
:103DA000B0470130B2D00D9B2BB90E9B1BB9DBF88D
:103DB0000030D907D1D5204629465246099BB04745
:103DC0000130A3D04FF000080D9B5B429845204680
:103DD000294608DA0BF11A020123B047013095D0C9
:103DE00008F10108F0E73A460E9BA5E0DBF8582001
:103DF0000E9B9A42A8BF1A46002A914602DC4FF059
:103E000000081CE0204629463A464B46B0470130A0
:103E1000F5D17BE7E0630008DC630008E863000895
:103E2000E4630008EC630008204629460BF11A02FF
:103E30000123B04701303FF469AF08F10108DBF816
:103E40005830B9F1000FACBFC9EB03021A469045D8
:103E5000EADB07EB03080D9A0E9B9A4210DBDBF8B6
:103E60000030DA070CD40E9A1744C8EB07030D9FF5
:103E7000D21B9342A8BF1346002B1F4608DC0EE05E
:103E8000204629465246099BB0470130EBD13DE719
:103E9000204629464246B04701303FF437AF4FF045
:103EA00000080AE0204629460BF11A020123B04718
:103EB00001303FF42BAF08F101080D9A0E9B002F43
:103EC000A3EB0203A8BFDB1B9845EBDB45E70E9A8B
:103ED000012A01DCDB0736D5204629463A46012374
:103EE000B04701303FF412AF204629465246099BA5
:103EF000B04701303FF40AAFDBE912010022002392
:103F000002F05AF9E8B90E9B204629467A1C013B7B
:103F10001DE0204629460BF11A020123B04701306B
:103F20003FF4F4AE01370E9B013B9F42F1DB20468C
:103F300029460BF150024B46B04701307FF40DAFDC
:103F4000E4E60027EFE7204629463A460123B0473A
:103F50000130ECD1DAE6204629460BF119020123A3
:103F6000B04701303FF4D2AE0137DBF80C300F9A86
:103F70009B1A9F42EFDBDBF80C000F9B9842B8BF07
:103F8000184619E00027F0E743F480638DE80C0041
:103F9000CBF800300DF1330302930DAB03930EAB5E
:103FA000059300230693CDF810802046DDE90A230F
:103FB000FFF731FD074640E611B0BDE8F08F00BFC6
:103FC0002DE9F84391461F468A680B69DDF8208089
:103FD0009342B8BF1346C9F8003091F84320064613
:103FE0000C4612B10133C9F800302368990642BF6C
:103FF000D9F800300233C9F80030256815F00605FD
:104000001CD094F843302268003318BF0123920675
:104010001FD5E1185A1C302081F84300224494F83F
:10402000451082F84310023313E03046394604F15C
:1040300019020123C047013007D00135E368D9F8E0
:1040400000209B1A9D42F0DBDBE74FF0FF30BDE81C
:10405000F8833046394604F14302C0470130F4D0BA
:104060002268D9F80050E36802F00602042A08BF6B
:104070005D1B2269A3680CBF25EAE5750025934204
:10408000C4BF9B1AED184FF00009A9450ADA304663
:10409000394604F11A020123C0470130D5D009F195
:1040A0000109F2E70020BDE8F88300002DE9FF4197
:1040B0000C461746227E6E2A984606460A9B01F158
:1040C000430100F0A98012D8632A23D00AD8002A1D
:1040D00000F0B680582A40F0C58084F84520DFF80B
:1040E000F8E151E0642A1ED0692A1CD0BAE0732A94
:1040F00000F0AA8009D86F2A2BD0702A40F0B28035
:10410000226842F02002226039E0752A21D0782A04
:1041100035D0A7E01A68111D1960136884F8423081
:1041200004F14205A2E020681A6810F0800F03D065
:10413000101D1860136805E04506F9D5101D1860BC
:10414000B2F90030002B3BDA2D225B4284F8432089
:1041500036E020681A6810F0800F03D0101D186038
:10416000136804E04006F9D5101D18601388227EFC
:10417000DFF864E16F2A0CBF08220A221CE07822D3
:10418000DFF858E184F845202268186812F0800FA3
:1041900000F104051D6001D0036802E05506FBD55F
:1041A0000388D00744BF42F0200222601BB9226876
:1041B00022F0200222601022002084F8430002E056
:1041C000DFF814E10A226568A560002DA2BF20680F
:1041D00020F00400206003B965B10D46B3FBF2F096
:1041E00002FB10331EF8033005F8013D034600289A
:1041F000F4D100E00D46082A0BD12368DA0708D570
:10420000236962689A42DEBF302305F8013C05F15C
:10421000FF35491B21612EE025681A68606915F099
:10422000800F03D0151D1D60136808E015F0400FC6
:1042300002F104051D60136801D0188000E01860C9
:10424000002323610D4616E01A68111D19601568D8
:1042500062682846002101F0D7F908B1401B606070
:10426000636804E004F1420584F8422001232361DD
:10427000002384F84330CDF800803046214603AA5D
:104280003B46FFF79DFE013002D14FF0FF301FE0AB
:10429000304639462A462369C0470130F5D02368A5
:1042A0009B0705D4E068039B9842B8BF18460FE00F
:1042B0000025E368039A9B1A9D42F3DA304639469B
:1042C00004F119020123C0470130DED00135F0E7C7
:1042D00004B0BDE8F08100BFEE630008FF63000892
:1042E0000FB40A4B13B51C6824B1A36913B9204657
:1042F00001F0A8F805AB2046A168049A019301F0EB
:1043000041FD02B0BDE8104004B070478889FE1F2F
:1043100070B50E46054618B183690BB901F092F8E5
:10432000AC68A389190701D5236983B928462146BA
:1043300000F0DAF858B14FF0FF3070BD002B0EDB03
:10434000236816F8012C1A70236801332360A368D0
:1043500016F8012B013BA360002AEFD116E0A269F9
:10436000934209DB236816F8012C1A702368197828
:104370000A29EAD1284602E016F8011C28462246FE
:1043800000F05EF8421C50425041D3E7002B15DA92
:10439000A269934208DB23680A221A7023681978FD
:1043A00091420FD1284601E028460A21224600F01A
:1043B00047F8431C5842584130B1BCE723680A22F1
:1043C0001A702368013323600A2070BD024B014636
:1043D0001868FFF79DBF00BF8889FE1F0A4631F0AD
:1043E000004110B503461BD00F48A2F5801484424B
:1043F00010D902F1FF420C4802F5E002824209D9CD
:10440000B1F5801F08D3094A914207D1B3FA83F06E
:10441000400910BD042010BD032010BD002010BDB8
:104420000028E6D1022010BDFFFFDF7F0000F07FF3
:10443000034613F8012B002AFBD1181A01387047E4
:1044400070B50D461446064618B183690BB900F0E5
:10445000F9FF224B9C4201D1746808E0204B9C423A
:1044600001D1B46803E01F4B9C4208BFF468A36904
:10447000A360A3891A0709D523693BB12368206982
:10448000181A63699842EDB20FDB08E03046214606
:1044900000F02AF80028F1D04FF0FF3070BD304610
:1044A000214600F065FF0028F6D1A368013BA36018
:1044B00023685A1C22601D7063690130984204D041
:1044C000A389DB0707D50A2D05D13046214600F028
:1044D0004FFF0028E0D1284670BD00BF20640008CF
:1044E0004064000860640008314B70B51D680646E2
:1044F0000C4625B1AB6913B9284600F0A3FF2D4B3C
:104500009C4201D16C6808E02B4B9C4201D1AC6805
:1045100003E02A4B9C4208BFEC68A3899AB21107BA
:104520001DD4D50602D40922326038E0500712D5D6
:10453000616B41B104F14403994202D0304601F06D
:104540005FFB00236363A38923F02403A38100237B
:10455000636023692360A38943F00803A38123696F
:104560004BB9A38903F42073B3F5007F03D0304621
:10457000214600F0F3FFA38913F0010205D00022C9
:10458000A26062695242A26103E0990758BF626962
:10459000A26022694AB903F0800080B230B143F0D2
:1045A0004003A3814FF0FF3070BD002070BD00BFFD
:1045B0008889FE1F206400084064000860640008C9
:1045C0002DE9F74F03690C69A3428046C0F2818050
:1045D000013C01F114074FEA840E00F1140657F86C
:1045E000245006EB0E030193013556F82430B3FB3B
:1045F000F5F507EB0E09C5B34FF0000A3846B4468F
:10460000D34650F8043B9AB21B0C02FB05A26B4345
:1046100003EB124392B2C2EB0B02BCF800B04FEABC
:10462000134A12FA8BF21FFA83FBDCF80030CBEB53
:10463000134303EB224392B242EA034248454FEA56
:10464000234B4CF8042BDCD956F80E306BB9019B88
:10465000043BB3421A4602D8C8F8104005E012687D
:10466000043B002AF8D1013CF3E7404601F0EDF9A4
:1046700000282CDB013530464FF0000E57F8041BA4
:10468000D0F800C08AB2C2EB0E03090C13FA8CF307
:10469000C1EB1C4202EB23429BB243EA02434F456B
:1046A0004FEA224E40F8043BE8D956F8242006EBA6
:1046B000840362B9043BB3421A4602D8C8F81040DA
:1046C00005E01268043B002AF8D1013CF3E72846D4
:1046D00000E0002003B0BDE8F08F00000000000003
:1046E0002DE9F04F456A97B08246239CCDE902231D
:1046F00045B9102000F080FFCAF8240045608560AD
:104700000560C560DAF82430196859B15A684A6002
:10471000012393408B60504600F0BAFFDAF8243052
:1047200000221A60039BA24A002BBFBF0123236013
:10473000039B23F00043B8BF0393039FA4BF002350
:10474000236027F000431B0D1B0593421DD1229AC5
:1047500042F20F731360029B43B9964A964BC7F31C
:104760001300002814BF1846104600E09248249B0E
:10477000002B00F07385C37813B100F1080300E04B
:10478000C31C249A136000F069BDDDE902450022D4
:1047900020462946002301F00FFD804658B1229A99
:1047A00001231360249B002B00F04685834818608A
:1047B000013800F053BD15AB009314AB0193504684
:1047C00022462B4601F0BCF9C7F30A5607905EB1AA
:1047D000C5F3130343F07F51204641F44011A6F284
:1047E000FF36CDF84C801DE0159B149E1E446FF4DF
:1047F00082639E42ADBF029A714B029A06F2124347
:10480000A3BF22FA03F06F4B9B1B9B1BAABF9F40C9
:1048100002FA03F03843FEF7E7FD0123A1F1F87136
:10482000013E13930022684BFEF7A0FC5AA3D3E984
:104830000023FEF74FFE5AA3D3E90023FEF798FCAE
:10484000044630460D46FEF7DFFD57A3D3E90023AB
:10485000FEF740FE02460B4620462946FEF788FC3E
:1048600004460D4601F0DAFC294683460022204624
:10487000002301F0ABFC58B15846FEF7C5FD0246D7
:104880000B462046294601F097FC08B90BF1FF3B87
:10489000BBF1160F0DD84D4B03EBCB03D3E9000151
:1048A000DDE9022301F0B0FC30B10BF1FF3B002346
:1048B00000E00123129300E01290149B9E1B731ED4
:1048C0000A9345BF5B420993002300234CBF0A9320
:1048D0000993BBF1000F07DB0A9BCDF834B05B44B2
:1048E0000A9300230B9308E0099BCBEB0303099386
:1048F000CBF100030B9300230D93209B092B28D8A9
:10490000052BC4BF043B2093209BA3F10203CCBF23
:1049100000250125032B21D8DFE803F0020E041047
:10492000002300E001230C93219B002B20DC0123BA
:10493000069305931A4619E0002300E001230C9327
:10494000219B5B4406930133012B0593B8BF0123E0
:1049500011E00125002320930C9501E001230C9325
:104960004FF0FF330693059300221223219202E0B9
:10497000219B06930593DAF824400022626004210B
:1049800001F114029A4223D8626801326260490040
:10499000F6E700BFAFF3008061436F63A787D23FA4
:1049A000B3C8608B288AC63FFB799F501344D33F1E
:1049B0000000F07F1064000819640008ED6300082F
:1049C000EEFBFFFF0EFCFFFF0000F83F88640008CD
:1049D0005046616800F027FEDAF8243020601B683A
:1049E0000893059B0E2B00F24B81002D00F04881AF
:1049F0009DED027BBBF1000F8DED107B31DDB34AE5
:104A00000BF00F034FEA2B1702EBC303F806D3E9B1
:104A100000450CD5AE4B51EC170BD3E90823FEF73C
:104A200083FE07F00F07CDE90201032600E002260E
:104A3000DFF89C8277B1F90708D520462946D8E9E6
:104A40000023FEF747FD013604460D467F1008F1AE
:104A50000808EFE7DDE9020122462B46FEF764FE77
:104A60001BE0CBF10004DCB1984B994D04F00F0230
:104A700003EBC203DDE91001D3E90023FEF72AFDB1
:104A8000241102264CB1E20704D5D5E900230136F2
:104A9000FEF720FD64100835F4E7CDE9020100E0DF
:104AA0000226129BDBB1DDE90245002220462946A1
:104AB000884B01F08BFB90B1059B83B1069B002BCB
:104AC00040F3DA80294620460022834BFEF702FDA0
:104AD0000BF1FF37CDE902010136069D01E0059D8E
:104AE0005F469DED027B30468DED0E7BFEF78CFC24
:104AF000DDE90E23FEF7EEFC0022784BFEF738FBD3
:104B00008046A1F15079CDB90022754BDDE90E0147
:104B1000FEF72CFB42464B46CDE9020101F074FB47
:104B2000002840F04682424609F10043DDE90201D7
:104B300001F04CFB002840F036829DE0634B0C995D
:104B40006A1E03EBC203002949D0D3E900230020E9
:104B50006449FEF7E9FD42464B46FEF707FBDDE9F7
:104B60000E89CDE90201089C4946404601F056FBFA
:104B70000646FEF749FC02460B4640464946FEF70C
:104B8000F5FA303604F8016BDDE9022380468946E8
:104B900001F01CFB002840F0408342464B460020B9
:104BA0004C49FEF7E3FADDE9022301F00FFB002890
:104BB00040F0D380089BE31AAB425DDADDE90201E5
:104BC0000022454BFEF786FC0022CDE90201424B54
:104BD00040464946FEF77EFC80468946C4E7D3E955
:104BE000000142464B46FEF775FC089BCDE90201E9
:104BF000DDE90E895C191D464946404601F00EFB71
:104C00000646FEF701FC303602460B464046494652
:104C1000FEF7ACFA05F8016BA5428046894624D11F
:104C20000022304BDDE90201FEF7A2FA02460B46F4
:104C30004046494601F0E8FA002840F08E80DDE960
:104C4000022300202749FEF791FA02460B46404610
:104C5000494601F0BBFA78B114F8013C302B04F15D
:104C6000FF3240F0DA821446F6E700221A4BFEF7D4
:104C700031FC80468946BFE7DDE91023CDE90223F8
:104C8000159B002BC0F28B80BBF10E0F00F38780C9
:104C90000E4B03EBCB03D3E90067219B002B23DAF8
:104CA000059B002B20DC40F07D81304600220C4B20
:104CB0003946FEF70FFCDDE9022301F09BFA059D62
:104CC0002E46002840F0708175E100BF886400081E
:104CD000506500080000F03F0000244000001C4028
:104CE000000014400000E03FDDE90289089C3246E4
:104CF0003B4640464946FEF717FD01F08FFA054650
:104D0000FEF782FB32463B46FEF7E4FB0B460246CB
:104D100049464046FEF72AFA05F1300E089B04F892
:104D200001EBC3EB040E059B9E452BD102460B46BF
:104D3000FEF71EFA32463B468046894601F064FA89
:104D400070B94046494632463B4601F035FA0028E4
:104D500000F06482EB0703D460E2BB4600E01C462F
:104D600014F8012C392A04F1FF3307D1089A934231
:104D7000F5D1302313700BF1010B13461A78013271
:104D80001A704BE20022A44BFEF7A4FB0022002382
:104D90008046894601F010FA0028A8D03EE20C9A1D
:104DA000002A32D0209A012A0ADC139A12B103F2A7
:104DB000334302E0149BC3F136030B9D099C18E0BA
:104DC000059B5D1E0B9BAB42BFBF0B9B0B95EA1A6D
:104DD0000D9BB6BF9B185D1B0D93059BB8BF0025AF
:104DE000002BB9BF099B059A099C059BBCBF9C1A67
:104DF0000023099A1A4409920A9A50461A4401213A
:104E00000A9200F0E7FC064602E00B9D099C0C9E0E
:104E100064B10A9B002B09DDA342099AA8BF23466F
:104E2000D21A09920A9AE41AD31A0A930B9B002BFE
:104E300020DD0C9BC3B1002D10DD31462A465046C3
:104E400000F062FD06463146079A504600F0CBFC62
:104E500007990746504600F01BFC07970B9B5A1B0F
:104E600008D05046079902E007990B9A504600F087
:104E70004BFD07905046012100F0ACFC0D9B002B30
:104E800005460ADD29461A46504600F03DFD209BA6
:104E9000012B054604DD00271BE0209B012B13DCC2
:104EA000029B8BB9039BC3F313037BB9039B23F0D2
:104EB00000473F0D3F0557B1099B013309930A9BFA
:104EC00001330A93012702E0002700E0029F0D9BB7
:104ED00043B12B6905EB8303186900F02EFCC0F188
:104EE000200000E001200A9B184410F01F0008D0A9
:104EF000C0F12003042B02DDC0F11C0002E008D049
:104F000018461C30099B034409930A9B034404443C
:104F10000A93099B002B05DD504607991A4600F0BD
:104F200041FD07900A9B002B05DD294650461A4695
:104F300000F038FD0546129BEBB10798294600F0BA
:104F400084FD002817DA0023504607990A2200F052
:104F5000B6FB0C9B07900BF1FF3B002B00F0708120
:104F60003146002350460A2200F0A9FB069B002B85
:104F7000064633DC6DE1059B002B26DC209B022BD3
:104F800023DD059B0693069B73B9294605225046EF
:104F900000F095FB05462946079800F056FD0028CD
:104FA00009DC01E000252E46219B089C6FEA030BDB
:104FB00008E0BB462E46089B089A5C1C3123137000
:104FC0000BF1010BB146002614E10C9B23B9059BA4
:104FD0000693089F079CCCE0059B0693002C05DDFB
:104FE00031465046224600F0DDFC0646B7B17168F6
:104FF000504600F018FB32690232044606F10C01FB
:1050000092000C30FEF7F4FC50462146012200F0DD
:10501000C9FC814603E000BF00002440B146089F60
:10502000079C29462046FFF7CBFA3146099000F14C
:105030003008204600F009FD4A46059029465046B2
:1050400000F01FFDC26803463AB91946204607938F
:1050500000F0FBFC079B024600E001225046194687
:10506000079200F015FB079AA2B9209B93B9029B07
:1050700003F0010373B9B8F1390F3B46079440D0F0
:10508000059B002BC8BF099B07F10104C8BF03F1B2
:1050900031083DE0059B002B04DA002AC446079442
:1050A00008DC21E024D1209B13BB029B03F0010309
:1050B000F3B9F2E72146012250460597CDF8088062
:1050C00000F070FC2946079000F0BFFC0028DDF8D6
:1050D00008C0059B03DC07D118F0010F04D0B8F11C
:1050E000390F0ED008F1010C7C1C87F800C081E05C
:1050F000002A07F101020EDDB8F1390F3B46079493
:1051000003D1392201371A7057E0144608F101081B
:1051100087F800806EE0089B02F8018CD31A1746CE
:10512000069A93423AD021460A220023504600F0C4
:10513000C6FA4E450446314650464FF00A024FF03B
:10514000000304D100F0BBFA0646814669E700F08F
:10515000B6FA494606460A225046002300F0AFFA46
:1051600081465EE7214650460A22002300F0A7FA56
:10517000044620462946FFF723FA00F1300807F8D5
:10518000018B089B069AFB1A9342EBDB089B012AD2
:10519000ACBF9B180133B1461F46002621460122B1
:1051A000504600F0FFFB2946079000F04EFC002817
:1051B00003DC16D118F0010F13D03C4614F8013C63
:1051C000392B04F1FF3209D1089B9A4204D10BF12B
:1051D000010B3123089A02E01446EFE70133137004
:1051E00008E03C4614F8013C302B04F1FF3201D1B9
:1051F0001446F7E75046294600F04AFAB9F1000F85
:105200000CD02EB14E4503D05046314600F040FA46
:105210005046494600F03CFA00E0BB46504607992C
:1052200000F036FA0023229A23700BF10103136079
:10523000249B1BB11C6001E00A480FE008980DE0B8
:10524000069B002B3FF7C5AE209B022B3FF79BAE82
:10525000BFE6209B022B3FF796AEBFE617B0BDE836
:10526000F08F00BFEC6300088A892DE9F041054604
:1052700010070C4657D44B68002B02DC0B6C002B3C
:1052800018DDE66AB6B102F48052002392B22F68AC
:105290002B600AB1626D10E0216A28460123B047F5
:1052A000411C024609D12B683BB11D2B01D0162BA6
:1052B00047D12F600020BDE8F081A3895B0705D5A9
:1052C0006368D21A636B0BB1236CD21AE66A216A47
:1052D00000232846B047461CA38905D12A681AB185
:1052E0001D2A01D0162A19D100226260D904226930
:1052F000226004D5421C01D12B6803B96065616B43
:105300002F600029D6D004F14403994202D02846E8
:1053100000F076FC00206063BDE8F08143F04003BC
:10532000A381BDE8F0810F69002FC3D093070E68F9
:1053300008BF4B690F6018BF0023C7EB06088B60DE
:1053400012E0A38943F04003A3814FF0FF30BDE892
:10535000F0812846216AA66A3A464346B0470028AB
:10536000EFDD0744C0EB0808B8F1000FF1DCA1E75E
:1053700038B50B6905460C46DBB118B183690BB92A
:1053800000F060F80C4B9C4201D16C6808E00B4BBC
:105390009C4201D1AC6803E0094B9C4208BFEC6819
:1053A000B4F90C302BB128462146BDE83840FFF750
:1053B0005BBF002038BD00BF2064000840640008C7
:1053C00060640008014900F0A7B800BF71530008ED
:1053D000002310B504460360436083608181436607
:1053E000C28103614361836119465C300822FEF784
:1053F0000AFB054B6362054BA362054BE362054B59
:105400002462236310BD00BFB55F0008D75F0008AA
:105410000F6000083360000870B568234D1E5D43BF
:105420000E4605F1740100F02FFC044640B1002146
:1054300080E842000C30A06005F16802FEF7E3FA54
:10544000204670BD836910B5044633BB8364C364D2
:105450000365124B124A1B688262984204BF012303
:10546000836100F01FF86060204600F01BF8A06028
:10547000204600F017F80421E06000226068FFF782
:10548000A7FFA06809210122FFF7A2FFE06812210F
:105490000222FFF79DFF0123A36110BDD86300081E
:1054A000C5530008F8B51B4B1E68B369074613B90E
:1054B0003046FFF7C7FF4836B4687368013B04D431
:1054C000B4F90C5075B16834F8E733682BB9384635
:1054D0000421FFF7A1FF306008B13668ECE70C2328
:1054E0003B60F8BD4FF6FF73E3810123A38165663E
:1054F0002560A560656025616561A56104F15C00BA
:1055000029460822FEF77FFA6563A563A564E56472
:105510002046F8BDD86300082DE9F8438046894647
:1055200000F14804002694B1A5686768013F0CD4D7
:10553000AB89012B07D9B5F90E30013303D04046B2
:105540002946C84706436835F0E72468EBE730464C
:10555000BDE8F883004870478C89FE1FF0B58B8941
:105560009D0791B006460C4626D4B1F90E100029CD
:1055700009DAA38913F0800F4FF0000514BF40270C
:105580004FF480670DE001AA00F07AFD0028F0DBFF
:10559000029D05F47045A5F500514D424D414FF473
:1055A00080673046394600F06FFB60B9A3899A05E1
:1055B0001DD443F00203A38104F147032360236158
:1055C0000123636113E00B4BB362A389206043F0B6
:1055D0008003A381206167614DB13046B4F90E109C
:1055E00000F060FD18B1A38943F00103A38111B05D
:1055F000F0BD00BFC5530008024B0146186800F01B
:1056000043BB00BF8889FE1F10B5C9B20244904257
:10561000034606D01C788C4200F10100F7D11846F1
:1056200010BD002010BD70B5456A04460E463DB958
:105630001020FFF7E1FF6062456085600560C5608E
:10564000656AEB6843B1636ADB6853F8260078B19A
:10565000026843F8262017E020460421212200F0AA
:10566000C1FA636AE860DB68002BECD1002070BDF2
:10567000012101FA06F56A1D2046920000F0B2FAF7
:105680000028F3D04660856000230361C36070BDCD
:1056900070B5446A06460D463CB91020FFF7ACFFD2
:1056A0007062446084600460C4603DB1736A6A687B
:1056B000DB6853F82210296043F8225070BD2DE9B1
:1056C000F0410F69984606460C4601F1140E00237E
:1056D000DEF8000085B2010C02FB0585514301EBA9
:1056E00015410133ADB24FEA1148BB4205EB014110
:1056F0004EF8041BECDBB8F1000F1BD0A3689F42EF
:1057000012DB616830460131FFF78DFF22690232FA
:1057100004F10C01054692000C30FEF769F92146B0
:105720003046FFF7B5FF2C4604EB87030137C3F87B
:10573000148027612046BDE8F081030C1B0413B9D7
:105740000004102300E0002310F07F4F04BF00028C
:10575000083310F0704F04BF0001043310F0404FC5
:1057600004BF80000233002803DB420003D5581C2D
:1057700070471846704720207047036813F00702EF
:105780000BD0D90722D49A074BBF5B089B08036054
:1057900003604CBF01200220704799B209B91B0C6D
:1057A000102213F0FF0F04BF1B0A0832190704BFB1
:1057B0001B090432990704BF9B080232D90702D49F
:1057C0005B0805D001320360104670470020704727
:1057D0002020704710B50C460121FFF724FF01225D
:1057E0004461026110BD2DE9F74F14460A6923692F
:1057F0009A42B8BF0B468846BCBFA0461C46D8F8A4
:105800001070D4F81090D8F80830D8F8041007EBCE
:1058100009069E42C8BF0131FFF705FF00F11405DC
:1058200005EB860C2B46634503D2002243F8042B7C
:10583000F9E704F1140208F1140102EB890301EB0A
:1058400087070093009B01929A4257D2B2F800B0AA
:10585000BBF1000F23D08946AE464FF0000859F83F
:10586000044BBEF800A0A3B20BFB03A34FEA144AFB
:10587000DEF8004043444FEA14480BFB0A8404EB73
:105880001344F2469BB243EA04434F454FEA14489F
:105890004AF8043B01D9D646E1E7CEF80480019BE3
:1058A000B3F802A00432BAF1000F21D02B682C46C5
:1058B00089464FF00008B9F800E0B4F802B00AFBDE
:1058C0000EBEF044A3469BB243EA08434BF8043BA8
:1058D00059F8043BB4F804E01B0C0AFB03E303EBA8
:1058E0001843B9454FEA134801D25C46E3E76360C9
:1058F0000435A7E75CF8043D13B9013E002EF9DC3E
:10590000066103B0BDE8F08F12F003032DE9F0410A
:1059100006460F46154607D0013B214A52F8232080
:105920000023FFF7CCFE0746AD1035D0746A3CB9B2
:105930001020FFF761FE7062446084600460C46000
:10594000D6F82480D8F808407CB9304640F271215E
:10595000FFF740FF0023C8F808000446036004E096
:105960006D1019D0206870B10446EB07F8D53946A0
:1059700022463046FFF737FF394680463046FFF76C
:1059800087FE4746ECE7304621462246FFF72BFFCD
:10599000002320600360E7E73846BDE8F08100BFE0
:1059A000786500082DE9F0470C464FEA621A236932
:1059B00049680AEB0309A3680746164609F1010581
:1059C0009D4202DD01315B00FAE73846FFF72BFE0E
:1059D0000023804600F11401534504DA002241F807
:1059E00023200133F8E72AEAEA73206901EB8303F5
:1059F00016F01F0204F1140101EB800E14D0C2F165
:105A0000200C00200E68964030439A4643F8040B61
:105A100051F8040B714520FA0CF0F3D3CAF80400D6
:105A200048B109F1020506E0043B51F8042B43F8A4
:105A3000042F7145F9D3013D3846C8F8105021466E
:105A4000FFF726FE4046BDE8F08703690A699B1A06
:105A500010B511D192001430143183180A4453F850
:105A6000044D52F8041D8C4202D007D3012010BD12
:105A70008342F4D8002010BD184610BD4FF0FF300F
:105A800010BD2DE9F84307460C4608461146154659
:105A9000FFF7DBFF061E08D138463146FFF7C3FD8E
:105AA000012303614661BDE8F883BCBF23462C4651
:105AB00038466168BABF1D4601260026FFF7B3FDD0
:105AC0002B69C660266905F11409143404EB8607B6
:105AD00009EB830800F114054FF0000C54F8043B67
